{
  "_format": "hh-sol-artifact-1",
  "contractName": "VotingApp",
  "sourceName": "contracts/VotingApp.sol",
  "abi": [
    {
      "inputs": [],
      "stateMutability": "nonpayable",
      "type": "constructor"
    },
    {
      "anonymous": false,
      "inputs": [
        {
          "indexed": false,
          "internalType": "string",
          "name": "name",
          "type": "string"
        },
        {
          "indexed": false,
          "internalType": "uint256",
          "name": "candidateId",
          "type": "uint256"
        }
      ],
      "name": "NewCandidate",
      "type": "event"
    },
    {
      "anonymous": false,
      "inputs": [
        {
          "indexed": true,
          "internalType": "address",
          "name": "from",
          "type": "address"
        },
        {
          "indexed": false,
          "internalType": "uint256",
          "name": "candidateId",
          "type": "uint256"
        },
        {
          "indexed": false,
          "internalType": "uint256",
          "name": "votes",
          "type": "uint256"
        }
      ],
      "name": "NewVote",
      "type": "event"
    },
    {
      "inputs": [
        {
          "internalType": "string",
          "name": "name",
          "type": "string"
        }
      ],
      "name": "addCandidate",
      "outputs": [],
      "stateMutability": "nonpayable",
      "type": "function"
    },
    {
      "inputs": [],
      "name": "getAllCandidates",
      "outputs": [
        {
          "components": [
            {
              "internalType": "uint256",
              "name": "id",
              "type": "uint256"
            },
            {
              "internalType": "string",
              "name": "name",
              "type": "string"
            },
            {
              "internalType": "uint256",
              "name": "votes",
              "type": "uint256"
            }
          ],
          "internalType": "struct VotingApp.Candidate[]",
          "name": "",
          "type": "tuple[]"
        }
      ],
      "stateMutability": "view",
      "type": "function"
    },
    {
      "inputs": [],
      "name": "test",
      "outputs": [
        {
          "internalType": "address",
          "name": "",
          "type": "address"
        }
      ],
      "stateMutability": "view",
      "type": "function"
    },
    {
      "inputs": [
        {
          "internalType": "uint256",
          "name": "_candidateId",
          "type": "uint256"
        }
      ],
      "name": "vote",
      "outputs": [],
      "stateMutability": "nonpayable",
      "type": "function"
    },
    {
      "inputs": [
        {
          "internalType": "address",
          "name": "",
          "type": "address"
        }
      ],
      "name": "voters",
      "outputs": [
        {
          "internalType": "bool",
          "name": "",
          "type": "bool"
        }
      ],
      "stateMutability": "view",
      "type": "function"
    }
  ],
  "bytecode": "0x60806040523480156200001157600080fd5b506200005d6040518060400160405280601381526020017f5374617274696e6720766f74696e6720617070000000000000000000000000008152506200006360201b620004e11760201c565b620001f7565b62000103816040516024016200007a919062000170565b6040516020818303038152906040527f41304fac000000000000000000000000000000000000000000000000000000007bffffffffffffffffffffffffffffffffffffffffffffffffffffffff19166020820180517bffffffffffffffffffffffffffffffffffffffffffffffffffffffff83818316178352505050506200010660201b60201c565b50565b60008151905060006a636f6e736f6c652e6c6f679050602083016000808483855afa5050505050565b60006200013c8262000194565b6200014881856200019f565b93506200015a818560208601620001b0565b6200016581620001e6565b840191505092915050565b600060208201905081810360008301526200018c81846200012f565b905092915050565b600081519050919050565b600082825260208201905092915050565b60005b83811015620001d0578082015181840152602081019050620001b3565b83811115620001e0576000848401525b50505050565b6000601f19601f8301169050919050565b610d2580620002076000396000f3fe608060405234801561001057600080fd5b50600436106100575760003560e01c80630121b93f1461005c5780632e6997fe14610078578063462e91ec14610096578063a3ec138d146100b2578063f8a8fd6d146100e2575b600080fd5b61007660048036038101906100719190610742565b610100565b005b6100806102e2565b60405161008d9190610930565b60405180910390f35b6100b060048036038101906100ab9190610701565b6103e7565b005b6100cc60048036038101906100c791906106d8565b6104b9565b6040516100d99190610952565b60405180910390f35b6100ea6104d9565b6040516100f79190610915565b60405180910390f35b6000803373ffffffffffffffffffffffffffffffffffffffff1673ffffffffffffffffffffffffffffffffffffffff16815260200190815260200160002060009054906101000a900460ff161561018c576040517f08c379a0000000000000000000000000000000000000000000000000000000008152600401610183906109bf565b60405180910390fd5b600181815481106101c6577f4e487b7100000000000000000000000000000000000000000000000000000000600052603260045260246000fd5b906000526020600020906003020160020160008154809291906101e890610bb1565b919050555060016000803373ffffffffffffffffffffffffffffffffffffffff1673ffffffffffffffffffffffffffffffffffffffff16815260200190815260200160002060006101000a81548160ff0219169083151502179055503373ffffffffffffffffffffffffffffffffffffffff167f2fa70e1827070583e9d005d8f9615a3c9da46a089c016cf9cd32b1345a47380282600184815481106102b7577f4e487b7100000000000000000000000000000000000000000000000000000000600052603260045260246000fd5b9060005260206000209060030201600201546040516102d79291906109df565b60405180910390a250565b60606001805480602002602001604051908101604052809291908181526020016000905b828210156103de57838290600052602060002090600302016040518060600160405290816000820154815260200160018201805461034390610b4e565b80601f016020809104026020016040519081016040528092919081815260200182805461036f90610b4e565b80156103bc5780601f10610391576101008083540402835291602001916103bc565b820191906000526020600020905b81548152906001019060200180831161039f57829003601f168201915b5050505050815260200160028201548152505081526020019060010190610306565b50505050905090565b600160405180606001604052806002548152602001838152602001600081525090806001815401808255809150506001900390600052602060002090600302016000909190919091506000820151816000015560208201518160010190805190602001906104569291906105a3565b506040820151816002015550506002600081548092919061047690610bb1565b91905055507f020831c118f82588e447b2dea8ce8624255ad5f2f242a4736c02211616746f63816002546040516104ae92919061098f565b60405180910390a150565b60006020528060005260406000206000915054906101000a900460ff1681565b600033905090565b610577816040516024016104f5919061096d565b6040516020818303038152906040527f41304fac000000000000000000000000000000000000000000000000000000007bffffffffffffffffffffffffffffffffffffffffffffffffffffffff19166020820180517bffffffffffffffffffffffffffffffffffffffffffffffffffffffff838183161783525050505061057a565b50565b60008151905060006a636f6e736f6c652e6c6f679050602083016000808483855afa5050505050565b8280546105af90610b4e565b90600052602060002090601f0160209004810192826105d15760008555610618565b82601f106105ea57805160ff1916838001178555610618565b82800160010185558215610618579182015b828111156106175782518255916020019190600101906105fc565b5b5090506106259190610629565b5090565b5b8082111561064257600081600090555060010161062a565b5090565b600061065961065484610a2d565b610a08565b90508281526020810184848401111561067157600080fd5b61067c848285610b0c565b509392505050565b60008135905061069381610cc1565b92915050565b600082601f8301126106aa57600080fd5b81356106ba848260208601610646565b91505092915050565b6000813590506106d281610cd8565b92915050565b6000602082840312156106ea57600080fd5b60006106f884828501610684565b91505092915050565b60006020828403121561071357600080fd5b600082013567ffffffffffffffff81111561072d57600080fd5b61073984828501610699565b91505092915050565b60006020828403121561075457600080fd5b6000610762848285016106c3565b91505092915050565b600061077783836108a7565b905092915050565b61078881610ac4565b82525050565b600061079982610a6e565b6107a38185610a91565b9350836020820285016107b585610a5e565b8060005b858110156107f157848403895281516107d2858261076b565b94506107dd83610a84565b925060208a019950506001810190506107b9565b50829750879550505050505092915050565b61080c81610ad6565b82525050565b600061081d82610a79565b6108278185610aa2565b9350610837818560208601610b1b565b61084081610c87565b840191505092915050565b600061085682610a79565b6108608185610ab3565b9350610870818560208601610b1b565b61087981610c87565b840191505092915050565b6000610891601683610ab3565b915061089c82610c98565b602082019050919050565b60006060830160008301516108bf60008601826108f7565b50602083015184820360208601526108d78282610812565b91505060408301516108ec60408601826108f7565b508091505092915050565b61090081610b02565b82525050565b61090f81610b02565b82525050565b600060208201905061092a600083018461077f565b92915050565b6000602082019050818103600083015261094a818461078e565b905092915050565b60006020820190506109676000830184610803565b92915050565b60006020820190508181036000830152610987818461084b565b905092915050565b600060408201905081810360008301526109a9818561084b565b90506109b86020830184610906565b9392505050565b600060208201905081810360008301526109d881610884565b9050919050565b60006040820190506109f46000830185610906565b610a016020830184610906565b9392505050565b6000610a12610a23565b9050610a1e8282610b80565b919050565b6000604051905090565b600067ffffffffffffffff821115610a4857610a47610c58565b5b610a5182610c87565b9050602081019050919050565b6000819050602082019050919050565b600081519050919050565b600081519050919050565b6000602082019050919050565b600082825260208201905092915050565b600082825260208201905092915050565b600082825260208201905092915050565b6000610acf82610ae2565b9050919050565b60008115159050919050565b600073ffffffffffffffffffffffffffffffffffffffff82169050919050565b6000819050919050565b82818337600083830152505050565b60005b83811015610b39578082015181840152602081019050610b1e565b83811115610b48576000848401525b50505050565b60006002820490506001821680610b6657607f821691505b60208210811415610b7a57610b79610c29565b5b50919050565b610b8982610c87565b810181811067ffffffffffffffff82111715610ba857610ba7610c58565b5b80604052505050565b6000610bbc82610b02565b91507fffffffffffffffffffffffffffffffffffffffffffffffffffffffffffffffff821415610bef57610bee610bfa565b5b600182019050919050565b7f4e487b7100000000000000000000000000000000000000000000000000000000600052601160045260246000fd5b7f4e487b7100000000000000000000000000000000000000000000000000000000600052602260045260246000fd5b7f4e487b7100000000000000000000000000000000000000000000000000000000600052604160045260246000fd5b6000601f19601f8301169050919050565b7f596f752063616e206f6e6c7920766f7465206f6e636500000000000000000000600082015250565b610cca81610ac4565b8114610cd557600080fd5b50565b610ce181610b02565b8114610cec57600080fd5b5056fea2646970667358221220db3bd689aac9ce29c1263705293c8aa3b23d71d229fc57dc65ab2d5ccdc3092164736f6c63430008040033",
  "linkReferences": {},
  "deployedLinkReferences": {}
}