{
  "_format": "hh-sol-artifact-1",
  "contractName": "WavePortal",
  "sourceName": "contracts/WavePortal.sol",
  "abi": [
    {
      "inputs": [],
      "stateMutability": "nonpayable",
      "type": "constructor"
    },
    {
      "inputs": [
        {
          "internalType": "uint256",
          "name": "",
          "type": "uint256"
        }
      ],
      "name": "arr",
      "outputs": [
        {
          "internalType": "address payable",
          "name": "",
          "type": "address"
        }
      ],
      "stateMutability": "view",
      "type": "function"
    },
    {
      "inputs": [],
      "name": "getTotalWaves",
      "outputs": [
        {
          "internalType": "uint256",
          "name": "",
          "type": "uint256"
        }
      ],
      "stateMutability": "view",
      "type": "function"
    },
    {
      "inputs": [],
      "name": "wave",
      "outputs": [],
      "stateMutability": "nonpayable",
      "type": "function"
    }
  ],
  "bytecode": "0x608060405234801561001057600080fd5b5061003c60405180606001604052806025815260200161088e6025913961004160201b6101e51760201c565b6101c4565b6100dd816040516024016100559190610142565b6040516020818303038152906040527f41304fac000000000000000000000000000000000000000000000000000000007bffffffffffffffffffffffffffffffffffffffffffffffffffffffff19166020820180517bffffffffffffffffffffffffffffffffffffffffffffffffffffffff83818316178352505050506100e060201b60201c565b50565b60008151905060006a636f6e736f6c652e6c6f679050602083016000808483855afa5050505050565b600061011482610164565b61011e818561016f565b935061012e818560208601610180565b610137816101b3565b840191505092915050565b6000602082019050818103600083015261015c8184610109565b905092915050565b600081519050919050565b600082825260208201905092915050565b60005b8381101561019e578082015181840152602081019050610183565b838111156101ad576000848401525b50505050565b6000601f19601f8301169050919050565b6106bb806101d36000396000f3fe608060405234801561001057600080fd5b50600436106100415760003560e01c80636fe15b441461004657806371e5ee5f146100505780639a2cdc0814610080575b600080fd5b61004e61009e565b005b61006a600480360381019061006591906103f4565b61015b565b6040516100779190610483565b60405180910390f35b61008861019a565b6040516100959190610520565b60405180910390f35b60016000808282546100b09190610557565b925050819055506100f66040518060400160405280601481526020017f257320776176656420617420796f75206e6f77210000000000000000000000008152503361027e565b6001339080600181540180825580915050600190039060005260206000200160009091909190916101000a81548173ffffffffffffffffffffffffffffffffffffffff021916908373ffffffffffffffffffffffffffffffffffffffff160217905550565b6001818154811061016b57600080fd5b906000526020600020016000915054906101000a900473ffffffffffffffffffffffffffffffffffffffff1681565b60006101dd6040518060400160405280601781526020017f5765206861766520256420746f74616c2077617665732100000000000000000081525060005461031a565b600054905090565b61027b816040516024016101f9919061049e565b6040516020818303038152906040527f41304fac000000000000000000000000000000000000000000000000000000007bffffffffffffffffffffffffffffffffffffffffffffffffffffffff19166020820180517bffffffffffffffffffffffffffffffffffffffffffffffffffffffff83818316178352505050506103b6565b50565b61031682826040516024016102949291906104c0565b6040516020818303038152906040527f319af333000000000000000000000000000000000000000000000000000000007bffffffffffffffffffffffffffffffffffffffffffffffffffffffff19166020820180517bffffffffffffffffffffffffffffffffffffffffffffffffffffffff83818316178352505050506103b6565b5050565b6103b282826040516024016103309291906104f0565b6040516020818303038152906040527f9710a9d0000000000000000000000000000000000000000000000000000000007bffffffffffffffffffffffffffffffffffffffffffffffffffffffff19166020820180517bffffffffffffffffffffffffffffffffffffffffffffffffffffffff83818316178352505050506103b6565b5050565b60008151905060006a636f6e736f6c652e6c6f679050602083016000808483855afa5050505050565b6000813590506103ee8161066e565b92915050565b60006020828403121561040657600080fd5b6000610414848285016103df565b91505092915050565b610426816105bf565b82525050565b610435816105ad565b82525050565b60006104468261053b565b6104508185610546565b93506104608185602086016105fb565b6104698161065d565b840191505092915050565b61047d816105f1565b82525050565b6000602082019050610498600083018461041d565b92915050565b600060208201905081810360008301526104b8818461043b565b905092915050565b600060408201905081810360008301526104da818561043b565b90506104e9602083018461042c565b9392505050565b6000604082019050818103600083015261050a818561043b565b90506105196020830184610474565b9392505050565b60006020820190506105356000830184610474565b92915050565b600081519050919050565b600082825260208201905092915050565b6000610562826105f1565b915061056d836105f1565b9250827fffffffffffffffffffffffffffffffffffffffffffffffffffffffffffffffff038211156105a2576105a161062e565b5b828201905092915050565b60006105b8826105d1565b9050919050565b60006105ca826105d1565b9050919050565b600073ffffffffffffffffffffffffffffffffffffffff82169050919050565b6000819050919050565b60005b838110156106195780820151818401526020810190506105fe565b83811115610628576000848401525b50505050565b7f4e487b7100000000000000000000000000000000000000000000000000000000600052601160045260246000fd5b6000601f19601f8301169050919050565b610677816105f1565b811461068257600080fd5b5056fea264697066735822122039d94395f60b184ccd53ff97281adafe11e9794089f12bdf16e5fcfae8e4ec6764736f6c63430008040033596f20796f2c204920616d206120636f6e747261637420616e64204920616d20736d617274",
  "linkReferences": {},
  "deployedLinkReferences": {}
}